{
  "_format": "hh-sol-artifact-1",
  "contractName": "EnglishAuction",
  "sourceName": "contracts/EnglishAuction.sol",
  "abi": [
    {
      "inputs": [
        {
          "internalType": "address",
          "name": "_nft",
          "type": "address"
        },
        {
          "internalType": "uint256",
          "name": "_nftId",
          "type": "uint256"
        },
        {
          "internalType": "uint256",
          "name": "_startingBid",
          "type": "uint256"
        }
      ],
      "stateMutability": "nonpayable",
      "type": "constructor"
    },
    {
      "anonymous": false,
      "inputs": [
        {
          "indexed": true,
          "internalType": "address",
          "name": "sender",
          "type": "address"
        },
        {
          "indexed": false,
          "internalType": "uint256",
          "name": "amount",
          "type": "uint256"
        }
      ],
      "name": "Bid",
      "type": "event"
    },
    {
      "anonymous": false,
      "inputs": [
        {
          "indexed": false,
          "internalType": "address",
          "name": "highestBidder",
          "type": "address"
        },
        {
          "indexed": false,
          "internalType": "uint256",
          "name": "amount",
          "type": "uint256"
        }
      ],
      "name": "End",
      "type": "event"
    },
    {
      "anonymous": false,
      "inputs": [],
      "name": "Start",
      "type": "event"
    },
    {
      "anonymous": false,
      "inputs": [
        {
          "indexed": true,
          "internalType": "address",
          "name": "bidder",
          "type": "address"
        },
        {
          "indexed": false,
          "internalType": "uint256",
          "name": "amount",
          "type": "uint256"
        }
      ],
      "name": "Withdraw",
      "type": "event"
    },
    {
      "inputs": [],
      "name": "bid",
      "outputs": [],
      "stateMutability": "payable",
      "type": "function"
    },
    {
      "inputs": [
        {
          "internalType": "address",
          "name": "",
          "type": "address"
        }
      ],
      "name": "bids",
      "outputs": [
        {
          "internalType": "uint256",
          "name": "",
          "type": "uint256"
        }
      ],
      "stateMutability": "view",
      "type": "function"
    },
    {
      "inputs": [],
      "name": "end",
      "outputs": [],
      "stateMutability": "nonpayable",
      "type": "function"
    },
    {
      "inputs": [],
      "name": "endAt",
      "outputs": [
        {
          "internalType": "uint32",
          "name": "",
          "type": "uint32"
        }
      ],
      "stateMutability": "view",
      "type": "function"
    },
    {
      "inputs": [],
      "name": "ended",
      "outputs": [
        {
          "internalType": "bool",
          "name": "",
          "type": "bool"
        }
      ],
      "stateMutability": "view",
      "type": "function"
    },
    {
      "inputs": [],
      "name": "highestBid",
      "outputs": [
        {
          "internalType": "uint256",
          "name": "",
          "type": "uint256"
        }
      ],
      "stateMutability": "view",
      "type": "function"
    },
    {
      "inputs": [],
      "name": "highestBidder",
      "outputs": [
        {
          "internalType": "address",
          "name": "",
          "type": "address"
        }
      ],
      "stateMutability": "view",
      "type": "function"
    },
    {
      "inputs": [],
      "name": "nft",
      "outputs": [
        {
          "internalType": "contract IERC721",
          "name": "",
          "type": "address"
        }
      ],
      "stateMutability": "view",
      "type": "function"
    },
    {
      "inputs": [],
      "name": "nftId",
      "outputs": [
        {
          "internalType": "uint256",
          "name": "",
          "type": "uint256"
        }
      ],
      "stateMutability": "view",
      "type": "function"
    },
    {
      "inputs": [],
      "name": "seller",
      "outputs": [
        {
          "internalType": "address payable",
          "name": "",
          "type": "address"
        }
      ],
      "stateMutability": "view",
      "type": "function"
    },
    {
      "inputs": [],
      "name": "start",
      "outputs": [],
      "stateMutability": "nonpayable",
      "type": "function"
    },
    {
      "inputs": [],
      "name": "started",
      "outputs": [
        {
          "internalType": "bool",
          "name": "",
          "type": "bool"
        }
      ],
      "stateMutability": "view",
      "type": "function"
    },
    {
      "inputs": [],
      "name": "withdraw",
      "outputs": [],
      "stateMutability": "nonpayable",
      "type": "function"
    }
  ],
  "bytecode": "0x60e06040523480156200001157600080fd5b5060405162001592380380620015928339818101604052810190620000379190620000eb565b8273ffffffffffffffffffffffffffffffffffffffff1660808173ffffffffffffffffffffffffffffffffffffffff1660601b815250508160a081815250503373ffffffffffffffffffffffffffffffffffffffff1660c08173ffffffffffffffffffffffffffffffffffffffff1660601b8152505080600181905550505050620001b3565b600081519050620000ce816200017f565b92915050565b600081519050620000e58162000199565b92915050565b6000806000606084860312156200010157600080fd5b60006200011186828701620000bd565b93505060206200012486828701620000d4565b92505060406200013786828701620000d4565b9150509250925092565b60006200014e8262000155565b9050919050565b600073ffffffffffffffffffffffffffffffffffffffff82169050919050565b6000819050919050565b6200018a8162000141565b81146200019657600080fd5b50565b620001a48162000175565b8114620001b057600080fd5b50565b60805160601c60a05160c05160601c6113636200022f600039600081816102ad015281816106e10152818161084301528181610b820152610c2d0152600081816108650152818161090401528181610b110152610c4e01526000818161066b0152818161080701528181610ab10152610bf001526113636000f3fe6080604052600436106100c25760003560e01c806362ea82db1161007f578063be9a655511610059578063be9a655514610227578063c6bc51821461023e578063d57bde7914610269578063efbe1c1c14610294576100c2565b806362ea82db146101945780637cc3ae8c146101d157806391f90157146101fc576100c2565b806308551a53146100c757806312fa6feb146100f25780631998aeef1461011d5780631f2698ab146101275780633ccfd60b1461015257806347ccca0214610169575b600080fd5b3480156100d357600080fd5b506100dc6102ab565b6040516100e99190610eb1565b60405180910390f35b3480156100fe57600080fd5b506101076102cf565b6040516101149190610f9a565b60405180910390f35b6101256102e2565b005b34801561013357600080fd5b5061013c610535565b6040516101499190610f9a565b60405180910390f35b34801561015e57600080fd5b50610167610548565b005b34801561017557600080fd5b5061017e610669565b60405161018b9190610fb5565b60405180910390f35b3480156101a057600080fd5b506101bb60048036038101906101b69190610d32565b61068d565b6040516101c89190611090565b60405180910390f35b3480156101dd57600080fd5b506101e66106a5565b6040516101f391906110ab565b60405180910390f35b34801561020857600080fd5b506102116106b9565b60405161021e9190610e96565b60405180910390f35b34801561023357600080fd5b5061023c6106df565b005b34801561024a57600080fd5b50610253610902565b6040516102609190611090565b60405180910390f35b34801561027557600080fd5b5061027e610926565b60405161028b9190611090565b60405180910390f35b3480156102a057600080fd5b506102a961092c565b005b7f000000000000000000000000000000000000000000000000000000000000000081565b600060059054906101000a900460ff1681565b600060049054906101000a900460ff16610331576040517f08c379a000000000000000000000000000000000000000000000000000000000815260040161032890611010565b60405180910390fd5b60008054906101000a900463ffffffff1663ffffffff164210610389576040517f08c379a000000000000000000000000000000000000000000000000000000000815260040161038090611050565b60405180910390fd5b60015434116103cd576040517f08c379a00000000000000000000000000000000000000000000000000000000081526004016103c490610fd0565b60405180910390fd5b600073ffffffffffffffffffffffffffffffffffffffff16600060069054906101000a900473ffffffffffffffffffffffffffffffffffffffff1673ffffffffffffffffffffffffffffffffffffffff161461049d57600154600260008060069054906101000a900473ffffffffffffffffffffffffffffffffffffffff1673ffffffffffffffffffffffffffffffffffffffff1673ffffffffffffffffffffffffffffffffffffffff168152602001908152602001600020600082825461049591906110d7565b925050819055505b3460018190555033600060066101000a81548173ffffffffffffffffffffffffffffffffffffffff021916908373ffffffffffffffffffffffffffffffffffffffff1602179055503373ffffffffffffffffffffffffffffffffffffffff167fe684a55f31b79eca403df938249029212a5925ec6be8012e099b45bc1019e5d23460405161052b9190611090565b60405180910390a2565b600060049054906101000a900460ff1681565b6000600260003373ffffffffffffffffffffffffffffffffffffffff1673ffffffffffffffffffffffffffffffffffffffff1681526020019081526020016000205490506000600260003373ffffffffffffffffffffffffffffffffffffffff1673ffffffffffffffffffffffffffffffffffffffff168152602001908152602001600020819055503373ffffffffffffffffffffffffffffffffffffffff166108fc829081150290604051600060405180830381858888f19350505050158015610617573d6000803e3d6000fd5b503373ffffffffffffffffffffffffffffffffffffffff167f884edad9ce6fa2440d8a54cc123490eb96d2768479d49ff9c7366125a94243648260405161065e9190611090565b60405180910390a250565b7f000000000000000000000000000000000000000000000000000000000000000081565b60026020528060005260406000206000915090505481565b60008054906101000a900463ffffffff1681565b600060069054906101000a900473ffffffffffffffffffffffffffffffffffffffff1681565b7f000000000000000000000000000000000000000000000000000000000000000073ffffffffffffffffffffffffffffffffffffffff163373ffffffffffffffffffffffffffffffffffffffff161461076d576040517f08c379a000000000000000000000000000000000000000000000000000000000815260040161076490611030565b60405180910390fd5b600060049054906101000a900460ff16156107bd576040517f08c379a00000000000000000000000000000000000000000000000000000000081526004016107b490610ff0565b60405180910390fd5b6001600060046101000a81548160ff021916908315150217905550610258426107e691906110d7565b6000806101000a81548163ffffffff021916908363ffffffff1602179055507f000000000000000000000000000000000000000000000000000000000000000073ffffffffffffffffffffffffffffffffffffffff166323b872dd7f0000000000000000000000000000000000000000000000000000000000000000307f00000000000000000000000000000000000000000000000000000000000000006040518463ffffffff1660e01b81526004016108a293929190610ecc565b600060405180830381600087803b1580156108bc57600080fd5b505af11580156108d0573d6000803e3d6000fd5b505050507f1b55ba3aa851a46be3b365aee5b5c140edd620d578922f3e8466d2cbd96f954b60405160405180910390a1565b7f000000000000000000000000000000000000000000000000000000000000000081565b60015481565b600060049054906101000a900460ff1661097b576040517f08c379a000000000000000000000000000000000000000000000000000000000815260040161097290611010565b60405180910390fd5b600060059054906101000a900460ff16156109cb576040517f08c379a00000000000000000000000000000000000000000000000000000000081526004016109c290611050565b60405180910390fd5b60008054906101000a900463ffffffff1663ffffffff16421015610a24576040517f08c379a0000000000000000000000000000000000000000000000000000000008152600401610a1b90611070565b60405180910390fd5b6001600060056101000a81548160ff02191690831515021790555060008060046101000a81548160ff021916908315150217905550600073ffffffffffffffffffffffffffffffffffffffff16600060069054906101000a900473ffffffffffffffffffffffffffffffffffffffff1673ffffffffffffffffffffffffffffffffffffffff1614610bee577f000000000000000000000000000000000000000000000000000000000000000073ffffffffffffffffffffffffffffffffffffffff166323b872dd30600060069054906101000a900473ffffffffffffffffffffffffffffffffffffffff167f00000000000000000000000000000000000000000000000000000000000000006040518463ffffffff1660e01b8152600401610b4e93929190610f3a565b600060405180830381600087803b158015610b6857600080fd5b505af1158015610b7c573d6000803e3d6000fd5b505050507f000000000000000000000000000000000000000000000000000000000000000073ffffffffffffffffffffffffffffffffffffffff166108fc6001549081150290604051600060405180830381858888f19350505050158015610be8573d6000803e3d6000fd5b50610cbe565b7f000000000000000000000000000000000000000000000000000000000000000073ffffffffffffffffffffffffffffffffffffffff166323b872dd307f00000000000000000000000000000000000000000000000000000000000000007f00000000000000000000000000000000000000000000000000000000000000006040518463ffffffff1660e01b8152600401610c8b93929190610f03565b600060405180830381600087803b158015610ca557600080fd5b505af1158015610cb9573d6000803e3d6000fd5b505050505b7f7d7570b046e5ead3a4f3fbc9fa2445113625a1e79823776146316bafed6b8cc5600060069054906101000a900473ffffffffffffffffffffffffffffffffffffffff16600154604051610d13929190610f71565b60405180910390a1565b600081359050610d2c81611316565b92915050565b600060208284031215610d4457600080fd5b6000610d5284828501610d1d565b91505092915050565b610d6481611197565b82525050565b610d738161113f565b82525050565b610d828161112d565b82525050565b610d9181611151565b82525050565b610da0816111a9565b82525050565b6000610db36013836110c6565b9150610dbe82611220565b602082019050919050565b6000610dd66007836110c6565b9150610de182611249565b602082019050919050565b6000610df9600b836110c6565b9150610e0482611272565b602082019050919050565b6000610e1c600a836110c6565b9150610e278261129b565b602082019050919050565b6000610e3f6005836110c6565b9150610e4a826112c4565b602082019050919050565b6000610e626009836110c6565b9150610e6d826112ed565b602082019050919050565b610e818161117d565b82525050565b610e9081611187565b82525050565b6000602082019050610eab6000830184610d79565b92915050565b6000602082019050610ec66000830184610d6a565b92915050565b6000606082019050610ee16000830186610d5b565b610eee6020830185610d79565b610efb6040830184610e78565b949350505050565b6000606082019050610f186000830186610d79565b610f256020830185610d5b565b610f326040830184610e78565b949350505050565b6000606082019050610f4f6000830186610d79565b610f5c6020830185610d79565b610f696040830184610e78565b949350505050565b6000604082019050610f866000830185610d79565b610f936020830184610e78565b9392505050565b6000602082019050610faf6000830184610d88565b92915050565b6000602082019050610fca6000830184610d97565b92915050565b60006020820190508181036000830152610fe981610da6565b9050919050565b6000602082019050818103600083015261100981610dc9565b9050919050565b6000602082019050818103600083015261102981610dec565b9050919050565b6000602082019050818103600083015261104981610e0f565b9050919050565b6000602082019050818103600083015261106981610e32565b9050919050565b6000602082019050818103600083015261108981610e55565b9050919050565b60006020820190506110a56000830184610e78565b92915050565b60006020820190506110c06000830184610e87565b92915050565b600082825260208201905092915050565b60006110e28261117d565b91506110ed8361117d565b9250827fffffffffffffffffffffffffffffffffffffffffffffffffffffffffffffffff03821115611122576111216111f1565b5b828201905092915050565b60006111388261115d565b9050919050565b600061114a8261115d565b9050919050565b60008115159050919050565b600073ffffffffffffffffffffffffffffffffffffffff82169050919050565b6000819050919050565b600063ffffffff82169050919050565b60006111a2826111cd565b9050919050565b60006111b4826111bb565b9050919050565b60006111c68261115d565b9050919050565b60006111d8826111df565b9050919050565b60006111ea8261115d565b9050919050565b7f4e487b7100000000000000000000000000000000000000000000000000000000600052601160045260246000fd5b7f76616c7565203c20686967686573742062696400000000000000000000000000600082015250565b7f7374617274656400000000000000000000000000000000000000000000000000600082015250565b7f6e6f742073746172746564000000000000000000000000000000000000000000600082015250565b7f6e6f742073656c6c657200000000000000000000000000000000000000000000600082015250565b7f656e646564000000000000000000000000000000000000000000000000000000600082015250565b7f6e6f7420656e6465640000000000000000000000000000000000000000000000600082015250565b61131f8161112d565b811461132a57600080fd5b5056fea26469706673582212207f62b587cf9f395eb3f605569c0e50e2698ab416ddf5e74d1f67d8619befe74b64736f6c63430008040033",
  "linkReferences": {},
  "deployedLinkReferences": {}
}